{
  "contractName": "Lottery",
  "abi": [
    {
      "inputs": [],
      "stateMutability": "nonpayable",
      "type": "constructor"
    },
    {
      "inputs": [
        {
          "internalType": "uint256",
          "name": "Lucky_Num",
          "type": "uint256"
        }
      ],
      "name": "Participate",
      "outputs": [],
      "stateMutability": "payable",
      "type": "function"
    },
    {
      "inputs": [],
      "name": "Participants_list",
      "outputs": [
        {
          "internalType": "address payable[]",
          "name": "",
          "type": "address[]"
        }
      ],
      "stateMutability": "view",
      "type": "function"
    },
    {
      "inputs": [],
      "name": "winner",
      "outputs": [],
      "stateMutability": "payable",
      "type": "function"
    }
  ],
  "bytecode": "0x608060405234801561001057600080fd5b50336000806101000a81548173ffffffffffffffffffffffffffffffffffffffff021916908373ffffffffffffffffffffffffffffffffffffffff160217905550610459806100606000396000f3fe6080604052600436106100345760003560e01c8063d26d17cc14610039578063dfbf53ae146100a5578063f65c4d42146100af575b600080fd5b34801561004557600080fd5b5061004e6100dd565b6040518080602001828103825283818151815260200191508051906020019060200280838360005b83811015610091578082015181840152602081019050610076565b505050509050019250505060405180910390f35b6100ad61016b565b005b6100db600480360360208110156100c557600080fd5b8101908080359060200190929190505050610270565b005b6060600180548060200260200160405190810160405280929190818152602001828054801561016157602002820191906000526020600020905b8160009054906101000a900473ffffffffffffffffffffffffffffffffffffffff1673ffffffffffffffffffffffffffffffffffffffff1681526020019060010190808311610117575b5050505050905090565b3373ffffffffffffffffffffffffffffffffffffffff1660008054906101000a900473ffffffffffffffffffffffffffffffffffffffff1673ffffffffffffffffffffffffffffffffffffffff16146101c357600080fd5b6000600180549050116101d557600080fd5b60006001805490506101e561036d565b816101ec57fe5b069050600181815481106101fc57fe5b9060005260206000200160009054906101000a900473ffffffffffffffffffffffffffffffffffffffff1673ffffffffffffffffffffffffffffffffffffffff166108fc479081150290604051600060405180830381858888f1935050505015801561026c573d6000803e3d6000fd5b5050565b60008054906101000a900473ffffffffffffffffffffffffffffffffffffffff1673ffffffffffffffffffffffffffffffffffffffff163373ffffffffffffffffffffffffffffffffffffffff1614156102c957600080fd5b671bc16d674ec800003410156102de57600080fd5b6001339080600181540180825580915050600190039060005260206000200160009091909190916101000a81548173ffffffffffffffffffffffffffffffffffffffff021916908373ffffffffffffffffffffffffffffffffffffffff160217905550600281908060018154018082558091505060019003906000526020600020016000909190919091505550565b600042446001604051602001808481526020018381526020018060200182810382528381815481526020019150805480156103fd57602002820191906000526020600020905b8160009054906101000a900473ffffffffffffffffffffffffffffffffffffffff1673ffffffffffffffffffffffffffffffffffffffff16815260200190600101908083116103b3575b50509450505050506040516020818303038152906040528051906020012060001c90509056fea26469706673582212201d8fdfa06cb664719fa9544cb1c9b5ee4de5e2614ffdec9829b8bdb93190a4a464736f6c63430007030033",
  "immutableReferences": {},
  "source": "//SPDX-License-Identifier: UNLICENSED\r\n\r\npragma solidity >0.5.99 <0.8.0;\r\n\r\ncontract Lottery{\r\n    \r\n    // To make sure only owner(deployer) organizes the program.\r\n    address payable owner;\r\n    \r\n    // Holds list of all the participants who take participate in Lottery.\r\n    address payable[] Participants;\r\n    uint[] Participants_num;\r\n    //mapping (address=>uint) list;\r\n    constructor (){\r\n        owner=msg.sender;   // makes the contract deployer the owner.\r\n    }\r\n    \r\n    // Prevents Owner from participating.\r\n       modifier noOwner(){\r\n        require(msg.sender != owner);\r\n        _;\r\n    }\r\n    \r\n    //Lucky draw wont happen if no one participated.\r\n    modifier empty{\r\n       require(Participants.length>0);\r\n       _;\r\n    }\r\n    \r\n    //Minimum fee requirement\r\n    modifier fee{\r\n        require(msg.value >= 2 ether);\r\n        _;\r\n    }\r\n   \r\n    // This function checks if the people wanting to participate has enough amount to buy or not. If yes, registers them in participant array.\r\n    function Participate(uint Lucky_Num) public payable noOwner fee{\r\n            Participants.push(msg.sender);\r\n            Participants_num.push(Lucky_Num);\r\n            \r\n    }\r\n    \r\n    \r\n    //Gives the list of all Participants kept in address array Participants.\r\n    function Participants_list() public view returns(address payable[] memory){\r\n        return Participants;\r\n    }\r\n    \r\n    // Random number generator, generates using Difficulty of block, Timestamp at contract creation and Particiants value. Firstly 256 hash using Keccack was generated and then was converted into uint.\r\n    function Random() private view returns(uint){\r\n        return uint(keccak256(abi.encode(block.timestamp,block.difficulty,Participants)));\r\n    }\r\n    \r\n    \r\n    // Makes sure only owner can generate winner.\r\n    modifier onlyOwner() {\r\n        require(owner==msg.sender);\r\n        _;\r\n    }\r\n    \r\n    \r\n    // Chooses winner from the list based on their registration index and returns all ether back to winner.\r\n    function winner() public payable onlyOwner empty {\r\n        uint ran = Random()%Participants.length;\r\n        Participants[ran].transfer(address(this).balance);\r\n    }\r\n    \r\n    \r\n}",
  "sourcePath": "C:/Users/user/Desktop/Blockchain/Projects/Lottery/contracts/Lottery.sol",
  "compiler": {
    "name": "solc",
    "version": "0.7.3+commit.9bfce1f6.Emscripten.clang"
  },
  "schemaVersion": "3.3.0",
  "updatedAt": "2020-10-15T06:58:44.257Z",
  "devdoc": {
    "kind": "dev",
    "methods": {},
    "version": 1
  },
  "userdoc": {
    "kind": "user",
    "methods": {},
    "version": 1
  }
}